:100000000C94E8000C94FD000C94FD000C94FD0091
:100010000C94FD000C9444030C94FD000C94FD0022
:100020000C94FD000C94FD000C94FD000C94FD005C
:100030000C94FD000C94FD000C94FD000C94FD004C
:100040000C94FD000C94FD000C94FD000C94FD003C
:100050000C94FD000C94FD000C94FD000C94FD002C
:100060000C94FD000C94FD000C94FD000C94FD001C
:100070000C94FD000C94FD000C94FD000C94FD000C
:100080000C94FD000C94FD000C94FD000C94FD00FC
:100090000C94FD000C94FD000C94FD000C94FD00EC
:1000A0000C94FD000C94FD000C94FD000C94FD00DC
:1000B0000C94FD006E616E00696E660000407A105F
:1000C000F35A00A0724E18090010A5D4E80000E809
:1000D0007648170000E40B54020000CA9A3B000067
:1000E00000E1F505000080969800000040420F00F6
:1000F0000000A08601000000102700000000E803B7
:10010000000000006400000000000A000000000081
:100110000100000000002C76D888DC674F0823DF40
:10012000C1DFAE59E1B1B796E5E3E453C63AE65113
:10013000997696E8E6C28426EB898C9B62ED407C3A
:100140006FFCEFBC9C9F40F2BAA56FA5F490055AD6
:100150002AF75C936B6CF9676DC11BFCE0E40D47FB
:10016000FEF520E6B500D0ED902E0300943577051E
:100170000080841E080000204E0A000000C80C33D6
:100180003333330F986E12831141EF8D2114893B65
:10019000E65516CFFEE6DB18D1844B381BF77C1DE5
:1001A000901DA4BBE424203284725E228100C9F138
:1001B00024ECA1E53D27260020002020202020005F
:1001C000202323233E002020232338002320000067
:1001D00011241FBECFEFD8E0DEBFCDBF11E0A0E0FD
:1001E000B1E0E0E7F2E102C005900D92A630B10760
:1001F000D9F70E9473030C9436090C9400000E94F6
:10020000D003089588B1806288B9089588B18F7D40
:1002100088B9089598B1907F98B998B18F70982B4C
:1002200098B988B1806188B985E08A95F1F70000B6
:1002300088B18F7E88B985E08A95F1F7000008952E
:10024000CF93C82F82958F700E940A018C2F8F70D8
:100250000E940A018FE391E00197F1F700C00000CE
:10026000CF9108950E94060181E00E9420012FEFA6
:1002700080E792E0215080409040E1F700C000000C
:1002800082E00E9420012FEF80E792E02150804021
:100290009040E1F700C0000008950E94060182E04E
:1002A0000E9420012FEF80E792E021508040904093
:1002B000E1F700C000000895CF93C82F0E9402010B
:1002C0008C2F0E942001CF910895CF93DF93EC01F2
:1002D00005C02196FC0184910E945C01CE01FE01C3
:1002E00024912111F6CFDF91CF910895CF93DF9321
:1002F000D82FC62F0E940601D23031F0D33031F012
:10030000D13031F080E005C084E103C084E501C054
:1003100080E48C0F80680E942001DF91CF910895C6
:1003200087B18F6387B92FEF81EE94E02150804031
:100330009040E1F700C000000E94060183E00E94A7
:100340000A018FEB9DE50197F1F700C0000083E003
:100350000E940A0187EE93E00197F1F700C00000C8
:1003600083E00E940A0187EE93E00197F1F700C055
:10037000000082E00E940A0188E20E9420018CE0D5
:100380000E94200181E00E9420018FE19EE40197FC
:10039000F1F700C000008CE00E94200186E00E947E
:1003A000200184E10E9420010E9432010895CF9330
:1003B000DF93C0E0D0E005C08CEC91E00E946501C5
:1003C0002196CA30D105C4F3DF91CF9108950E94E0
:1003D000760186EC91E00E94650108950E94760105
:1003E00080EC91E00E94650108950E9476018AEBFD
:1003F00091E00E94650108956F3021F40E94F5019B
:1004000080E002C081E0860F90E0089560910301D2
:100410007091040191E06431710508F090E0209141
:1004200001013091020181E02430310508F080E0C3
:10043000992349F0882339F0822F0E94760188EBB6
:1004400091E00E946501089560910301709104019B
:1004500091E06431710508F090E020910101309144
:10046000020181E02430310508F080E0992349F051
:10047000882339F0822F0E94760186EB91E00E945A
:10048000650108958AB185618AB98AB185798AB989
:100490008BB18A668BB98BB18A7E8BB9089584E261
:1004A000809300018BB18B7F8BB98BB181618BB94C
:1004B00085E38A95F1F7000089B189B18A768A349B
:1004C00081F018F48A3249F014C0823671F088360F
:1004D00081F481E3809300010FC084E380930001E5
:1004E0000BC087E38093000107C08AE2809300017C
:1004F00003C084E2809300018BB18E7E8BB9809122
:100500000001843261F58BB18E7F8BB98BB1846130
:100510008BB985E38A95F1F7000089B18A768A3430
:1005200081F018F48A3249F014C0823671F08836AE
:1005300081F482E3809300010FC085E38093000182
:100540000BC088E38093000107C080E38093000123
:1005500003C084E2809300018BB18B7E8BB98091C4
:100560000001843261F58BB18F7E8BB98BB18560D0
:100570008BB985E38A95F1F7000089B18A768A34D0
:1005800081F018F48A3249F014C0823671F088364E
:1005900081F483E3809300010FC086E38093000120
:1005A0000BC089E38093000107C083E280930001C0
:1005B00003C084E2809300018BB18A7F8BB90895D8
:1005C0008AE680936D00E8E6F0E080818C7F80838E
:1005D00080818460808378940895809100018433C1
:1005E000D1F030F4803309F440C0823331F0089503
:1005F0008533F9F0863359F1089580910101909186
:100600000201019790930201809301010E9406026A
:100610000E94240208950E94060280910301909195
:100620000401019790930401809303010E94240226
:1006300008950E94060280910101909102010196A5
:1006400090930201809301010E94240208950E9468
:100650000602809103019091040101969093040198
:10066000809303010E942402089589E090E0909312
:1006700004018093030183E090E090930201809352
:1006800001010E94240208951F920F920FB60F924B
:1006900011242F933F934F935F936F937F938F9387
:1006A0009F93AF93BF93EF93FF938FE891E00197F0
:1006B000F1F700C000000E944F028BB384608BBB37
:1006C0000E94ED02FF91EF91BF91AF919F918F91A9
:1006D0007F916F915F914F913F912F910F900FBE3E
:1006E0000F901F9018950E94FF000E9490010E9499
:1006F0004D010E9442028FE99FE00197F1F700C08F
:1007000000000E94E0020E94D701609101017091F7
:10071000020180910301909104010E9424020F2E96
:10072000F5E0FF2EF02D0CE014E0DAE0CFE00E94BF
:100730004D016C2F81E00E94E7016D2F81E00E9446
:10074000EE01612F81E00E94E701602F82E00E94AC
:10075000EE016F2D82E00E94E7019FEF29E688E11C
:10076000915020408040E1F700C000006C2F81E0F4
:100770000E94FC01C82F6D2F81E00E94FC01D82F40
:10078000612F81E00E94FC01182F602F82E00E94FF
:10079000FC01082F6F2D82E00E94FC01F82EC7CFCC
:1007A0008DE3809365008FEF8093640094B114B85B
:1007B00095B185B997B1907897B998B19F6798B975
:1007C0009AB11AB89BB18BB98DB1807F8DB98EB1BA
:1007D0008F608EB940E060E881E690E00E94F3030C
:1007E00013BE15BE08952FB7F894FC0160834083B3
:1007F0002FBF0895A0E1B0E0E0E0F4E00C947707AB
:100800007C011B016A01FC0117821682838181FF32
:1008100044C39E012F5F3F4F3901F7019381F101DE
:1008200093FD859193FF81911F01882309F431C3C2
:10083000853239F493FD859193FF81911F018532B3
:1008400039F4B70190E00E949C0856016501E5CF9C
:1008500010E0512C912CFFE1F915D8F08B3279F092
:1008600038F4803279F08332A1F4F92DF0612EC092
:100870008D3261F0803369F4292D21602DC0392D2E
:100880003260932E892D8460982E2AC0E92DE8606D
:1008900015C097FC2DC020ED280F2A3088F496FE55
:1008A00006C03AE0139F200D1124122F19C08AE0D0
:1008B000589E200D1124522EE92DE0629E2E10C06C
:1008C0008E3231F496FCE5C2F92DF0649F2E08C0FB
:1008D0008C3621F4292D2068922E02C0883641F4EE
:1008E000F10193FD859193FF81911F018111B3CF98
:1008F0009BEB980F933020F4992D9061805E07C098
:100900009BE9980F933008F066C1992D9F7E96FF62
:1009100016E09F73992E853619F49064992E08C0BD
:10092000863621F4392F3068932E02C011111150F0
:1009300097FE07C01C3350F444244394410E27E033
:100940000BC0183038F027E017E005C027E09CE323
:10095000492E02C0212F412C560184E0A80EB11C63
:10096000F6016081718182819381042DA3010E942F
:10097000AE076C01F981FC87F0FF02C0F3FF06C0EF
:1009800091FC06C092FE06C000E205C00DE203C065
:100990000BE201C000E08C858C7019F001115AC285
:1009A0009BC297FE10C04C0CFC85F4FF04C08A81EA
:1009B000813309F44A94141474F528E0241578F569
:1009C00088E0482E2CC096FC2AC0812F90E08C1520
:1009D0009D059CF03CEFC3163FEFD30674F0892DC4
:1009E0008068982E0AC0E2E0F0E0EC0FFD1FE10FF6
:1009F000F11D8081803319F411501111F4CF97FE4D
:100A00000EC044244394410E812F90E0C816D906AD
:100A10002CF41C1904C04424439401C010E097FE38
:100A200006C01C141D0434F4C601019605C085E0FF
:100A300090E002C081E090E001110196112331F0B5
:100A4000212F30E02F5F3F4F820F931F252D30E085
:100A50008217930714F4581A01C0512C892D8970FC
:100A600049F4552039F0B70180E290E00E949C08DB
:100A70005A94F7CF002329F0B701802F90E00E940D
:100A80009C0893FC09C0552039F0B70180E390E041
:100A90000E949C085A94F7CF97FE4CC04601D7FE9F
:100AA00002C0812C912CC60188199909F301E80F25
:100AB000F91FFE87ED87960124193109388B2F879E
:100AC000012F10E01195019511093FEF8316930650
:100AD00029F4B7018EE290E00E949C08C814D90462
:100AE0004CF08F8598898815990524F4ED85FE854D
:100AF000818101C080E3F1E08F1A91082D853E8548
:100B00002F5F3F4F3E872D87801691062CF0B7014F
:100B100090E00E949C08D9CFC814D90441F49A816E
:100B2000963320F4953319F43C8534FF81E3B70103
:100B300090E04EC08A81813319F09C859F7E9C870E
:100B4000B70190E00E949C08111105C094FC18C0E8
:100B500085E690E017C0B7018EE290E00E949C0805
:100B60001E5F82E001E0080FF301E80FF11D8081B4
:100B7000B70190E00E949C08802F0113F3CFE6CFCD
:100B800085E490E0B7010E949C08D7FC06C0C11420
:100B9000D10441F4EC85E4FF05C0D194C194D1089F
:100BA0008DE201C08BE2B70190E00E949C0880E3D7
:100BB0002AE0C216D1042CF08F5FFAE0CF1AD108D8
:100BC000F7CFB70190E00E949C08B701C601C0961C
:100BD0000E949C0854C1833631F0833779F0833505
:100BE00009F056C020C0560132E0A30EB11CF60138
:100BF0008081898301E010E0630112C05601F2E0B8
:100C0000AF0EB11CF601C080D18096FE03C0612FEB
:100C100070E002C06FEF7FEFC6010E9491088C0167
:100C2000F92DFF7714C0560122E0A20EB11CF60187
:100C3000C080D18096FE03C0612F70E002C06FEFCC
:100C40007FEFC6010E9486088C01F92DF0689F2E67
:100C5000F3FD1AC0852D90E008171907A8F4B70115
:100C600080E290E00E949C085A94F4CFF60197FC31
:100C7000859197FE81916F01B70190E00E949C08D9
:100C800051105A94015011090115110579F7F7C057
:100C9000843611F0893661F5560197FE09C024E0CB
:100CA000A20EB11CF60160817181828193810AC01C
:100CB000F2E0AF0EB11CF60160817181072E000CCD
:100CC000880B990BF92DFF769F2E97FF09C0909501
:100CD0008095709561957F4F8F4F9F4FF0689F2E45
:100CE0002AE030E0A3010E94D808C82EC6183FC0F1
:100CF000092D853721F40F7E2AE030E01DC0097FE1
:100D00008F3691F018F4883559F0C3C0803719F048
:100D1000883711F0BEC0006104FF09C0046007C03D
:100D200094FE08C0066006C028E030E005C020E15F
:100D300030E002C020E132E0560107FF09C084E044
:100D4000A80EB11CF601608171818281938108C077
:100D5000F2E0AF0EB11CF6016081718180E090E09D
:100D6000A3010E94D808C82EC6180F77902E96FEB1
:100D70000BC0092D0E7FC11650F494FE0AC092FCE0
:100D800008C0092D0E7E05C0DC2C092D03C0DC2C0B
:100D900001C0D12E04FF0DC0FE01EC0DF11D8081BC
:100DA000803311F4097E09C002FF06C0D394D394A6
:100DB00004C0802F867809F0D39403FD11C000FF92
:100DC00006C01C2DD51480F4150D1D190DC0D514A9
:100DD00058F4B70180E290E00E949C08D394F7CFCA
:100DE000D51410F45D1801C0512C04FF10C0B701D8
:100DF00080E390E00E949C0802FF17C001FD03C041
:100E000088E790E002C088E590E0B7010CC0802F31
:100E1000867859F001FF02C08BE201C080E207FD35
:100E20008DE2B70190E00E949C08C11638F4B7012A
:100E300080E390E00E949C081150F7CFCA94F30120
:100E4000EC0DF11D8081B70190E00E949C08C1105B
:100E5000F5CF15C0F4E0F51560F584E0581A93FE5F
:100E60001FC0011127C02C8523FF2AC004EB10E00E
:100E7000392D3071932EF8018491811124C05520B1
:100E800009F4E4CCB70180E290E00E949C085A94F7
:100E9000F6CFF7018681978126C08FEF9FEF23C0A1
:100EA000B70180E290E00E949C085A945110F8CF5C
:100EB000D8CF512CB701802F90E00E949C08D3CF4F
:100EC00008EB10E0D5CF91108052B70190E00E945E
:100ED0009C080F5F1F4FCFCF23E0251510F483E050
:100EE000BDCF512CC0CF6096E2E10C9493072F92B6
:100EF0003F924F925F926F927F928F929F92AF92AA
:100F0000BF92CF92DF92EF92FF920F931F93CF93F6
:100F1000DF93CDB7DEB7CA1BDB0B0FB6F894DEBF8D
:100F20000FBECDBF09942A88398848885F846E84B3
:100F30007D848C849B84AA84B984C884DF80EE80FD
:100F4000FD800C811B81AA81B981CE0FD11D0FB606
:100F5000F894DEBF0FBECDBFED010895283008F034
:100F600027E03327DA01990F311D87FD9160009644
:100F70006105710539F432602E5F3D9330E32A95A7
:100F8000E1F708959F3F30F080387105610509F061
:100F90003C5F3C5F3D93913008F08068911DDF938A
:100FA000CF931F930F93FF92EF92192F987F9695EF
:100FB000E92F96959695E90FFF27EA5EFE4F992750
:100FC0003327EE24FF24A701E70105900894079436
:100FD00028F4360FE71EF81E491F511D660F771FB4
:100FE000881F991F0694A1F70590079428F4E70E2F
:100FF000F81E491F561FC11D770F881F991F661FB6
:101000000694A1F70590079428F4F80E491F561F7F
:10101000C71FD11D880F991F661F771F0694A1F760
:101020000590079420F4490F561FC71FD81F990F2A
:10103000661F771F881F0694A9F784911095177073
:1010400041F0D695C79557954795F794E7941A952B
:10105000C1F7ECEBF0E0689415901591359165912E
:10106000959105907FE27395E118F10A430B560BB9
:10107000C90BD009C0F7E10CF11E431F561FC91F51
:10108000D01D7EF4703311F48A95E6CFE8940150B8
:1010900030F0080F0AF40027021708F4202F2395D8
:1010A000022F7A3328F079E37D932A95E9F710C06F
:1010B0007D932A9589F606949795679537951795A8
:1010C0001794E118F10A430B560BC90BD00998F09D
:1010D00023957E9173957A3308F070E37C93201307
:1010E000B8F77E9170617D9330F0839571E37D93C5
:1010F00070E32A95E1F71124EF90FF900F911F9173
:10110000CF91DF91992787FD90950895FC01059077
:10111000615070400110D8F7809590958E0F9F1FF9
:101120000895FC016150704001900110D8F780953E
:1011300090958E0F9F1F08950F931F93CF93DF936A
:10114000FB01238121FD03C08FEF9FEF2CC022FF05
:1011500016C046815781248135814217530744F4D4
:10116000A081B1819D012F5F3F4F318320838C93FC
:10117000268137812F5F3F4F3783268314C08B0131
:10118000EC01FB010084F185E02D0995892BE1F646
:10119000D80116968D919C911797019617969C935E
:1011A0008E931697CE01DF91CF911F910F910895E5
:1011B000FA01AA27283051F1203181F1E8946F9388
:1011C0006E7F6E5F7F4F8F4F9F4FAF4FB1E03ED02E
:1011D000B4E03CD0670F781F891F9A1FA11D680FCC
:1011E000791F8A1F911DA11D6A0F711D811D911DFF
:1011F000A11D20D009F468943F912AE0269F112474
:101200003019305D3193DEF6CF010895462F4770D7
:10121000405D4193B3E00FD0C9F7F6CF462F4F7032
:10122000405D4A3318F0495D31FD4052419302D090
:10123000A9F7EACFB4E0A695979587957795679536
:10124000BA95C9F700976105710508959B01AC0136
:101250000A2E06945795479537952795BA95C9F75D
:10126000620F731F841F951FA01D0895F894FFCF70
:0612700024030009000048
:00000001FF
